{
  "contractName": "EventTicketsV2",
  "abi": [
    {
      "inputs": [],
      "payable": false,
      "stateMutability": "nonpayable",
      "type": "constructor"
    },
    {
      "anonymous": false,
      "inputs": [
        {
          "indexed": false,
          "internalType": "address",
          "name": "buyer",
          "type": "address"
        },
        {
          "indexed": false,
          "internalType": "uint256",
          "name": "eventId",
          "type": "uint256"
        },
        {
          "indexed": false,
          "internalType": "uint256",
          "name": "numTickets",
          "type": "uint256"
        }
      ],
      "name": "LogBuyTickets",
      "type": "event"
    },
    {
      "anonymous": false,
      "inputs": [
        {
          "indexed": false,
          "internalType": "address",
          "name": "owner",
          "type": "address"
        },
        {
          "indexed": false,
          "internalType": "uint256",
          "name": "balance",
          "type": "uint256"
        },
        {
          "indexed": false,
          "internalType": "uint256",
          "name": "eventId",
          "type": "uint256"
        }
      ],
      "name": "LogEndSale",
      "type": "event"
    },
    {
      "anonymous": false,
      "inputs": [
        {
          "indexed": false,
          "internalType": "string",
          "name": "desc",
          "type": "string"
        },
        {
          "indexed": false,
          "internalType": "string",
          "name": "url",
          "type": "string"
        },
        {
          "indexed": false,
          "internalType": "uint256",
          "name": "ticketsAvailable",
          "type": "uint256"
        },
        {
          "indexed": false,
          "internalType": "uint256",
          "name": "eventId",
          "type": "uint256"
        }
      ],
      "name": "LogEventAdded",
      "type": "event"
    },
    {
      "anonymous": false,
      "inputs": [
        {
          "indexed": false,
          "internalType": "address",
          "name": "accountRefunded",
          "type": "address"
        },
        {
          "indexed": false,
          "internalType": "uint256",
          "name": "eventId",
          "type": "uint256"
        },
        {
          "indexed": false,
          "internalType": "uint256",
          "name": "numTickets",
          "type": "uint256"
        }
      ],
      "name": "LogGetRefund",
      "type": "event"
    },
    {
      "constant": true,
      "inputs": [],
      "name": "idGenerator",
      "outputs": [
        {
          "internalType": "uint256",
          "name": "",
          "type": "uint256"
        }
      ],
      "payable": false,
      "stateMutability": "view",
      "type": "function"
    },
    {
      "constant": true,
      "inputs": [],
      "name": "owner",
      "outputs": [
        {
          "internalType": "address",
          "name": "",
          "type": "address"
        }
      ],
      "payable": false,
      "stateMutability": "view",
      "type": "function"
    },
    {
      "constant": false,
      "inputs": [
        {
          "internalType": "string",
          "name": "description",
          "type": "string"
        },
        {
          "internalType": "string",
          "name": "url",
          "type": "string"
        },
        {
          "internalType": "uint256",
          "name": "tickets",
          "type": "uint256"
        }
      ],
      "name": "addEvent",
      "outputs": [
        {
          "internalType": "uint256",
          "name": "",
          "type": "uint256"
        }
      ],
      "payable": false,
      "stateMutability": "nonpayable",
      "type": "function"
    },
    {
      "constant": true,
      "inputs": [
        {
          "internalType": "uint256",
          "name": "eventId",
          "type": "uint256"
        }
      ],
      "name": "readEvent",
      "outputs": [
        {
          "internalType": "string",
          "name": "description",
          "type": "string"
        },
        {
          "internalType": "string",
          "name": "website",
          "type": "string"
        },
        {
          "internalType": "uint256",
          "name": "tickets",
          "type": "uint256"
        },
        {
          "internalType": "uint256",
          "name": "sales",
          "type": "uint256"
        },
        {
          "internalType": "bool",
          "name": "isOpen",
          "type": "bool"
        }
      ],
      "payable": false,
      "stateMutability": "view",
      "type": "function"
    },
    {
      "constant": false,
      "inputs": [
        {
          "internalType": "uint256",
          "name": "eventId",
          "type": "uint256"
        },
        {
          "internalType": "uint256",
          "name": "tickets",
          "type": "uint256"
        }
      ],
      "name": "buyTickets",
      "outputs": [],
      "payable": true,
      "stateMutability": "payable",
      "type": "function"
    },
    {
      "constant": false,
      "inputs": [
        {
          "internalType": "uint256",
          "name": "eventId",
          "type": "uint256"
        }
      ],
      "name": "getRefund",
      "outputs": [],
      "payable": true,
      "stateMutability": "payable",
      "type": "function"
    },
    {
      "constant": true,
      "inputs": [
        {
          "internalType": "uint256",
          "name": "eventId",
          "type": "uint256"
        }
      ],
      "name": "getBuyerNumberTickets",
      "outputs": [
        {
          "internalType": "uint256",
          "name": "tickets",
          "type": "uint256"
        }
      ],
      "payable": false,
      "stateMutability": "view",
      "type": "function"
    },
    {
      "constant": false,
      "inputs": [
        {
          "internalType": "uint256",
          "name": "eventId",
          "type": "uint256"
        }
      ],
      "name": "endSale",
      "outputs": [],
      "payable": false,
      "stateMutability": "nonpayable",
      "type": "function"
    }
  ],
  "bytecode": "0x6080604052606460015534801561001557600080fd5b50336000806101000a81548173ffffffffffffffffffffffffffffffffffffffff021916908373ffffffffffffffffffffffffffffffffffffffff1602179055506000600281905550610f868061006d6000396000f3fe60806040526004361061007b5760003560e01c80638da5cb5b1161004e5780638da5cb5b146102bf578063d2f0be9914610316578063e1ba30a914610344578063e7bd92b91461047d5761007b565b806304d1a846146100805780633ddedd38146100bb5780634da19f201461010a5780638627df4614610287575b600080fd5b34801561008c57600080fd5b506100b9600480360360208110156100a357600080fd5b81019080803590602001909291905050506104a8565b005b3480156100c757600080fd5b506100f4600480360360208110156100de57600080fd5b810190808035906020019092919050505061060a565b6040518082815260200191505060405180910390f35b34801561011657600080fd5b506102716004803603606081101561012d57600080fd5b810190808035906020019064010000000081111561014a57600080fd5b82018360208201111561015c57600080fd5b8035906020019184600183028401116401000000008311171561017e57600080fd5b91908080601f016020809104026020016040519081016040528093929190818152602001838380828437600081840152601f19601f820116905080830192505050505050509192919290803590602001906401000000008111156101e157600080fd5b8201836020820111156101f357600080fd5b8035906020019184600183028401116401000000008311171561021557600080fd5b91908080601f016020809104026020016040519081016040528093929190818152602001838380828437600081840152601f19601f82011690508083019250505050505050919291929080359060200190929190505050610667565b6040518082815260200191505060405180910390f35b6102bd6004803603604081101561029d57600080fd5b8101908080359060200190929190803590602001909291905050506108a8565b005b3480156102cb57600080fd5b506102d4610a71565b604051808273ffffffffffffffffffffffffffffffffffffffff1673ffffffffffffffffffffffffffffffffffffffff16815260200191505060405180910390f35b6103426004803603602081101561032c57600080fd5b8101908080359060200190929190505050610a96565b005b34801561035057600080fd5b5061037d6004803603602081101561036757600080fd5b8101908080359060200190929190505050610cd5565b60405180806020018060200186815260200185815260200184151515158152602001838103835288818151815260200191508051906020019080838360005b838110156103d75780820151818401526020810190506103bc565b50505050905090810190601f1680156104045780820380516001836020036101000a031916815260200191505b50838103825287818151815260200191508051906020019080838360005b8381101561043d578082015181840152602081019050610422565b50505050905090810190601f16801561046a5780820380516001836020036101000a031916815260200191505b5097505050505050505060405180910390f35b34801561048957600080fd5b50610492610ea6565b6040518082815260200191505060405180910390f35b6000809054906101000a900473ffffffffffffffffffffffffffffffffffffffff1673ffffffffffffffffffffffffffffffffffffffff163373ffffffffffffffffffffffffffffffffffffffff161461050157600080fd5b60003073ffffffffffffffffffffffffffffffffffffffff1631905060006004600084815260200190815260200160002060050160006101000a81548160ff0219169083151502179055503373ffffffffffffffffffffffffffffffffffffffff166108fc829081150290604051600060405180830381858888f19350505050158015610592573d6000803e3d6000fd5b507f6497e6dff32a753fe6b3a2b3430e5f86d65c6e35cf360d52eb3494711d7d7a1c338284604051808473ffffffffffffffffffffffffffffffffffffffff1673ffffffffffffffffffffffffffffffffffffffff168152602001838152602001828152602001935050505060405180910390a15050565b60006004600083815260200190815260200160002060040160003373ffffffffffffffffffffffffffffffffffffffff1673ffffffffffffffffffffffffffffffffffffffff168152602001908152602001600020549050919050565b60008060009054906101000a900473ffffffffffffffffffffffffffffffffffffffff1673ffffffffffffffffffffffffffffffffffffffff163373ffffffffffffffffffffffffffffffffffffffff16146106c257600080fd5b8360046000600254815260200190815260200160002060000190805190602001906106ee929190610eac565b5082600460006002548152602001908152602001600020600101908051906020019061071b929190610eac565b508160046000600254815260200190815260200160002060020181905550600160046000600254815260200190815260200160002060050160006101000a81548160ff0219169083151502179055506000600254905060016002600082825401925050819055507f7d1d82c13762b51876068c852c5d404d0fa38fb615c14eebefafb60bdb4bd1b285858584604051808060200180602001858152602001848152602001838103835287818151815260200191508051906020019080838360005b838110156107f75780820151818401526020810190506107dc565b50505050905090810190601f1680156108245780820380516001836020036101000a031916815260200191505b50838103825286818151815260200191508051906020019080838360005b8381101561085d578082015181840152602081019050610842565b50505050905090810190601f16801561088a5780820380516001836020036101000a031916815260200191505b50965050505050505060405180910390a16002549150509392505050565b600115156004600084815260200190815260200160002060050160009054906101000a900460ff161515146108dc57600080fd5b80600154023410156108ed57600080fd5b806004600084815260200190815260200160002060030154600460008581526020019081526020016000206002015403101561092857600080fd5b806004600084815260200190815260200160002060040160003373ffffffffffffffffffffffffffffffffffffffff1673ffffffffffffffffffffffffffffffffffffffff168152602001908152602001600020600082825401925050819055508060046000848152602001908152602001600020600301600082825401925050819055503373ffffffffffffffffffffffffffffffffffffffff166108fc826001540234039081150290604051600060405180830381858888f193505050501580156109f9573d6000803e3d6000fd5b507f15827fa78fedf80f93aa72ce61e705b1362cab60ae596b1bb327076fc3856c24338383604051808473ffffffffffffffffffffffffffffffffffffffff1673ffffffffffffffffffffffffffffffffffffffff168152602001838152602001828152602001935050505060405180910390a15050565b6000809054906101000a900473ffffffffffffffffffffffffffffffffffffffff1681565b60006004600083815260200190815260200160002060040160003373ffffffffffffffffffffffffffffffffffffffff1673ffffffffffffffffffffffffffffffffffffffff168152602001908152602001600020541415610af757600080fd5b6004600082815260200190815260200160002060040160003373ffffffffffffffffffffffffffffffffffffffff1673ffffffffffffffffffffffffffffffffffffffff1681526020019081526020016000205460046000838152602001908152602001600020600301600082825403925050819055503373ffffffffffffffffffffffffffffffffffffffff166108fc6004600084815260200190815260200160002060040160003373ffffffffffffffffffffffffffffffffffffffff1673ffffffffffffffffffffffffffffffffffffffff16815260200190815260200160002054600154029081150290604051600060405180830381858888f19350505050158015610c0b573d6000803e3d6000fd5b507f73ebb2050cb3ee6869929e7a26925e92e201f14902e155037f1f90af931b323333826004600085815260200190815260200160002060040160003373ffffffffffffffffffffffffffffffffffffffff1673ffffffffffffffffffffffffffffffffffffffff16815260200190815260200160002054604051808473ffffffffffffffffffffffffffffffffffffffff1673ffffffffffffffffffffffffffffffffffffffff168152602001838152602001828152602001935050505060405180910390a150565b606080600080600060046000878152602001908152602001600020600001600460008881526020019081526020016000206001016004600089815260200190815260200160002060020154600460008a815260200190815260200160002060030154600460008b815260200190815260200160002060050160009054906101000a900460ff16848054600181600116156101000203166002900480601f016020809104026020016040519081016040528092919081815260200182805460018160011615610100020316600290048015610df05780601f10610dc557610100808354040283529160200191610df0565b820191906000526020600020905b815481529060010190602001808311610dd357829003601f168201915b50505050509450838054600181600116156101000203166002900480601f016020809104026020016040519081016040528092919081815260200182805460018160011615610100020316600290048015610e8c5780601f10610e6157610100808354040283529160200191610e8c565b820191906000526020600020905b815481529060010190602001808311610e6f57829003601f168201915b505050505093509450945094509450945091939590929450565b60035481565b828054600181600116156101000203166002900490600052602060002090601f016020900481019282601f10610eed57805160ff1916838001178555610f1b565b82800160010185558215610f1b579182015b82811115610f1a578251825591602001919060010190610eff565b5b509050610f289190610f2c565b5090565b610f4e91905b80821115610f4a576000816000905550600101610f32565b5090565b9056fea265627a7a723158208612593df3350236fafe8bee124335b13f795d489dda82cc27e1daa8e7cb83b064736f6c634300050c0032",
  "source": "pragma solidity ^0.5.0;\r\n\r\n    /*\r\n        The EventTicketsV2 contract keeps track of the details and ticket sales of multiple events.\r\n     */\r\ncontract EventTicketsV2 {\r\n\r\n    /*\r\n        Define an public owner variable. Set it to the creator of the contract when it is initialized.\r\n    */\r\n    address public owner;\r\n    uint   PRICE_TICKET = 100 wei;\r\n\r\n    /*\r\n        Create a variable to keep track of the event ID numbers.\r\n    */\r\n    uint numberOfEvents;\r\n    uint public idGenerator;\r\n\r\n    /*\r\n        Define an Event struct, similar to the V1 of this contract.\r\n        The struct has 6 fields: description, website (URL), totalTickets, sales, buyers, and isOpen.\r\n        Choose the appropriate variable type for each field.\r\n        The \"buyers\" field should keep track of addresses and how many tickets each buyer purchases.\r\n    */\r\n    struct Event {\r\n\t    string description;\r\n\t    string website;\r\n\t    uint totalTickets;\r\n\t    uint sales;\r\n\t    mapping (address => uint) buyers;\r\n\t    bool isOpen;\r\n    }\r\n    /*\r\n        Create a mapping to keep track of the events.\r\n        The mapping key is an integer, the value is an Event struct.\r\n        Call the mapping \"events\".\r\n    */\r\n    mapping (uint => Event) events;\r\n\r\n    event LogEventAdded(string desc, string url, uint ticketsAvailable, uint eventId);\r\n    event LogBuyTickets(address buyer, uint eventId, uint numTickets);\r\n    event LogGetRefund(address accountRefunded, uint eventId, uint numTickets);\r\n    event LogEndSale(address owner, uint balance, uint eventId);\r\n\r\n    /*\r\n        Create a modifier that throws an error if the msg.sender is not the owner.\r\n    */\r\n    modifier isOwner() { require(msg.sender == owner); _;}\r\n    \r\n    constructor()\r\n        public\r\n    {\r\n      owner = msg.sender;\r\n      numberOfEvents= 0;\r\n    }\r\n    /*\r\n        Define a function called addEvent().\r\n        This function takes 3 parameters, an event description, a URL, and a number of tickets.\r\n        Only the contract owner should be able to call this function.\r\n        In the function:\r\n            - Set the description, URL and ticket number in a new event.\r\n            - set the event to open\r\n            - set an event ID\r\n            - increment the ID\r\n            - emit the appropriate event\r\n            - return the event's ID\r\n    */\r\n    function addEvent(string memory description, string memory url, uint tickets)\r\n        public\r\n        isOwner()\r\n        returns (uint)\r\n    {\r\n            events[numberOfEvents].description = description;\r\n            events[numberOfEvents].website = url;\r\n            events[numberOfEvents].totalTickets = tickets;\r\n\t        events[numberOfEvents].isOpen = true;\r\n            uint eventId =  numberOfEvents;\r\n            numberOfEvents += 1;\r\n            emit LogEventAdded(description, url, tickets, eventId);\r\n\t        return(numberOfEvents);\r\n\r\n    }\r\n    /*\r\n        Define a function called readEvent().\r\n        This function takes one parameter, the event ID.\r\n        The function returns information about the event this order:\r\n            1. description\r\n            2. URL\r\n            3. tickets available\r\n            4. sales\r\n            5. isOpen\r\n    */\r\n    function readEvent(uint eventId)\r\n        public\r\n        view\r\n    returns(string  memory description, string  memory website, uint tickets, uint sales, bool isOpen)\r\n    {\r\n\t    return(events[eventId].description, events[eventId].website, events[eventId].totalTickets, events[eventId].sales, events[eventId].isOpen);\r\n    }\r\n\r\n    /*\r\n        Define a function called buyTickets().\r\n        This function allows users to buy tickets for a specific event.\r\n        This function takes 2 parameters, an event ID and a number of tickets.\r\n        The function checks:\r\n            - that the event sales are open\r\n            - that the transaction value is sufficient to purchase the number of tickets\r\n            - that there are enough tickets available to complete the purchase\r\n        The function:\r\n            - increments the purchasers ticket count\r\n            - increments the ticket sale count\r\n            - refunds any surplus value sent\r\n            - emits the appropriate event\r\n    */\r\n    function buyTickets(uint eventId, uint tickets)\r\n        public \r\n        payable\r\n    {\r\n\t    require(events[eventId].isOpen == true);\r\n\t    require(msg.value >= PRICE_TICKET*tickets);\r\n\t    require(events[eventId].totalTickets - events[eventId].sales >= tickets);\r\n\t    events[eventId].buyers[msg.sender] += tickets;\r\n\t    events[eventId].sales += tickets;\r\n\t    msg.sender.transfer(msg.value - PRICE_TICKET*tickets);\r\n\t    emit LogBuyTickets(msg.sender, eventId, tickets);\r\n    }\r\n\r\n    /*\r\n        Define a function called getRefund().\r\n        This function allows users to request a refund for a specific event.\r\n        This function takes one parameter, the event ID.\r\n        TODO:\r\n            - check that a user has purchased tickets for the event\r\n            - remove refunded tickets from the sold count\r\n            - send appropriate value to the refund requester\r\n            - emit the appropriate event\r\n    */\r\n    function getRefund(uint eventId)\r\n        public \r\n        payable\r\n    {\r\n\t    require(events[eventId].buyers[msg.sender] != 0);\r\n\t    events[eventId].sales -= events[eventId].buyers[msg.sender];\r\n\t    msg.sender.transfer(PRICE_TICKET*events[eventId].buyers[msg.sender]);\r\n\t    emit LogGetRefund(msg.sender, eventId, events[eventId].buyers[msg.sender]);\r\n    }\r\n\r\n    /*\r\n        Define a function called getBuyerNumberTickets()\r\n        This function takes one parameter, an event ID\r\n        This function returns a uint, the number of tickets that the msg.sender has purchased.\r\n    */\r\n    function getBuyerNumberTickets(uint eventId)\r\n        public\r\n        view\r\n        returns(uint tickets)\r\n    {\r\n        return(events[eventId].buyers[msg.sender]);\r\n    }\r\n    /*\r\n        Define a function called endSale()\r\n        This function takes one parameter, the event ID\r\n        Only the contract owner can call this function\r\n        TODO:\r\n            - close event sales\r\n            - transfer the balance from those event sales to the contract owner\r\n            - emit the appropriate event\r\n    */\r\n    function endSale(uint eventId)\r\n        public\r\n        isOwner()\r\n    {\r\n      uint balance = address(this).balance;\r\n      events[eventId].isOpen = false;\r\n      msg.sender.transfer(balance);\r\n      emit LogEndSale(msg.sender, balance, eventId);\r\n    }\r\n}\r\n",
  "sourcePath": "C:/Users/Eduardo/Documents/GitHub/event-ticket-exercise-eduardotoledoZero/contracts/EventTicketsV2.sol",
  "compiler": {
    "name": "solc",
    "version": "0.5.12+commit.7709ece9.Emscripten.clang"
  },
  "schemaVersion": "3.0.19",
  "updatedAt": "2020-01-10T20:59:56.879Z",
  "networkType": "ethereum",
  "devdoc": {
    "methods": {}
  },
  "userdoc": {
    "methods": {}
  }
}